:020000040000fa
:080000000002040000000000f2
:020000040000fa
:100400000f8020000eff20000e0188000000000079
:10041000000020000000e000020032000001200087
:10042000200288000c000700604f2000010020001f
:100430001f000700000020000000e0000200320062
:100440000000020000000000ba02020000000000ec
:100450000040da000000fe004440a9000000200037
:100460000000e0000300320000002000a00188002e
:100470004440a80000000600f03fb1000180b10038
:1004800006003500ee03090000000000403fb10007
:100490000180b100fbff3d001000b000203fb00024
:1004a0000200350000800900000000000000060086
:1004b00091018800800078000000eb0015003700f3
:1004c000e280400032a0b4009101ba00e280400016
:1004d00032a0b4009102ba00e280400032a0b40021
:1004e0000002eb00472bde00f507b200602ce100b4
:1004f00004003a000059eb008301e900fdff3e00d3
:10050000040037006128e100010032000082eb00a6
:10051000040007001101ba000200e000e8ff3a0001
:10052000000006003159ba008301e9000c003200d6
:100530002159ba008301e900080032000400e000fc
:1005400003003a00e280400032a0b400f5ff37001b
:1005500011d9ba008301e900faff3a008100e800ee
:10056000e180400032a0b400000006000040da0044
:040570000000fe0089
:020000040000fa
:0200000401f009
:04000c00f8ff0000f9
:020000040000fa
:0200000401f009
:040010007fff00006e
:020000040000fa
:0200000401f009
:040014007fff00006a
:020000040000fa
:0200000401f009
:04001800ffff0000e6
:020000040000fa
:0200000401f009
:04001c00deff000003
:020000040000fa
:10000800b6020000b6020000b6020000b602000008
:10001800b6020000b6020000b6020000b6020000f8
:10002800b6020000b6020000b6020000b6020000e8
:10003800b6020000b6020000b6020000b6020000d8
:020000040000fa
:020000040000fa
:100574000000fa007b07a8007b27a8007b47a8009f
:1005840094022000343a8800243a80000460a100d8
:100594000470a100243a8800253a800004fe2f004c
:1005a40004826200243a88003e0007000000000034
:1005b400153a8000040027008482620004002100b0
:1005c400848f5200faff3a0000000000153a8000c0
:1005d4000402200004826200e00f5200fbff32009c
:1005e40050c7a80051a7a800843a80000480a00046
:1005f4000490a00004a0a000843a880051e7a80059
:1006040000000000853a8000040024000482620097
:10061400e00f5200fbff320001e4a90001a4a9008d
:10062400142080000400a1000410a1000420a100f3
:1006340014208800f40f2000542088002124a800ee
:100644002104a8002044a8002024a9002004a80014
:1006540023e4a80023c4a8001421800004a0a0005f
:1006640004b0a000142188002044a8002124a8007c
:10067400244b200044218800244b2000842188003e
:100684009425200034218800d4122000742188008d
:1006940001e4a8007b07a9007b27a9007b47a900e8
:1006a400ffff37000200fa000002eb004416880046
:1006b4000082eb00141888000002eb00040f78009d
:1006c4000b0037000082eb0064168800a0fb2c00ae
:1006d4002100200067ff07000002eb006416880079
:1006e400a0fb2c002100200062ff07001e0fe80081
:1006f4001e027800e40f5200f2ff34000080fa007a
:10070400000006000000fa0023e4a80023c4a800a7
:100714001421800004a0a00004b0a00014218800cb
:100724002044a8002124a800244b20004421880050
:10073400244b200084218800942520003421880043
:10074400d41220007421880043e4a80043c4a80004
:100754001422800004a0a10004b0a1001422880087
:100764004044a8004124a800f40320006422880027
:10077400244b200044228800942520003422880041
:100784007b07a9007b27a9007b47a9000080fa000a
:10079400000006000000fa00453a800004fc2f0027
:1007a400048262000420a000443a8800353a8000a4
:1007b40004e02f0084826200440d200005027200d0
:1007c400343a8800253a800004fe2f000482620037
:1007d4000430a000243a8800243a80000460a10078
:1007e4000470a100243a8800160020008407200029
:1007f400a509200037742000844b7800854b7800cd
:10080400864b780016002000640420007505200043
:1008140027742000844b7800854b7800864b780041
:1008240000000000153a8000040027008482620062
:1008340004002100848f5200faff3a0000000000f7
:10084400153a80000402200004826200e00f520086
:10085400fbff320050c7a80051a7a800843a8000cb
:100864000480a0000490a00004a0a000843a8800a2
:1008740051e7a80000000000853a8000040024002d
:1008840004826200e00f5200fbff320001a4a900c1
:100894000144a800142080000400a1000410a10059
:1008a4000420a10014208800a462210024208800d0
:1008b40021e4a90041e4a90021a4a90041a4a900bc
:1008c4002184a9004184a9002164a9004164a900ec
:1008d4002144a9004144a9002124a9004124a900dc
:1008e4002104a9004104a900042180000460a1009e
:1008f4000470a10004218800042280000460a10087
:100904000470a100042288002044a9004044a900e6
:100914002024a9004024a9002004a8004004a80021
:1009240054b120003421880054b1200034228800be
:1009340054b12000442288000002eb0054218800b6
:100944000002eb00542288000002eb0064218800be
:100954000002eb0064228800a421800004c0a100ee
:1009640004d0a10004e0a10004f0a100a4218800a7
:10097400a521800004fc2f0004826200a4218800c9
:1009840034e4a90023e4a80043e4a80023c4a80095
:1009940043c4a80023a4a90043a4a90014218000ef
:1009a40004a0a10004b0a100142188001422800036
:1009b40004a0a10004b0a1001422880094218000a6
:1009c4006702620094218800c062a900c082a90065
:1009d400c9c2a900c9a2a90001e4a8002144a80031
:0809e4004144a800ffff3700a9
:020000040000fa
:0409ec000000000007
:00000001FF
