:020000040000fa
:080000000002040000000000f2
:020000040000fa
:100400002f8020000eff20000e0188000000000059
:10041000000020000000e000020032000001200087
:10042000200288000c000700a053200001002000db
:100430001f000700000020000000e0000200320062
:100440000000020000000000ee02020000000000b8
:100450000040da000000fe004440a9000000200037
:100460000000e0000300320000002000a00188002e
:100470004440a80000000600f03fb1000180b10038
:1004800006003500ee03090000000000403fb10007
:100490000180b100fbff3d001000b000203fb00024
:1004a0000200350000800900000000000000060086
:1004b00091018800800078000000eb0015003700f3
:1004c000e280400032a0b4009101ba00e280400016
:1004d00032a0b4009102ba00e280400032a0b40021
:1004e0000002eb00472bde00f507b200602ce100b4
:1004f00004003a000059eb008301e900fdff3e00d3
:10050000040037006128e100010032000082eb00a6
:10051000040007001101ba000200e000e8ff3a0001
:10052000000006003159ba008301e9000c003200d6
:100530002159ba008301e900080032000400e000fc
:1005400003003a00e280400032a0b400f5ff37001b
:1005500011d9ba008301e900faff3a008100e800ee
:10056000e180400032a0b400000006003600f80030
:10057000809fbe00829fbe00849fbe00869fbe00fb
:100580000000fa008460a90005e1a9000440800091
:100590000402e8000440880004408000e50f520097
:1005a00004003a000002eb00044088003000200004
:1005b000870007000002eb000408880005e1a8009e
:1005c0000080fa004f03be004f02be004f01be0084
:1005d0004f00be003600f900004006000000fa009f
:1005e0000002eb00041688000002eb0044168800ad
:1005f000500020007600070094022000343a880062
:10060000243a80000460a1000470a100243a88000c
:10061000253a800004fe2f0004826200243a8800fc
:100620001600200084072000a50920003774200050
:10063000844b7800854b7800864b780016002000ac
:10064000640420007505200027742000844b780086
:10065000854b7800864b780000000000153a80003a
:10066000040027008482620004002100848f52006d
:10067000faff3a0000000000153a80000402200052
:1006800004826200e00f5200fbff320050c7a80056
:1006900051a7a800843a80000480a0000490a00024
:1006a00004a0a000843a880051e7a80000000000e0
:1006b000853a80000400240004826200e00f5200aa
:1006c000fbff3200cc0007005700070023c4a9003d
:1006d00023e4a90043c4a90043e4a90063c4a9001a
:1006e00063e4a90043c4a80063e4a80080022000da
:1006f0000100200060ff070043c4a90023c4a80034
:1007000080022000010020005bff070063e4a900d5
:1007100043e4a800800220000100200056ff0700eb
:1007200063c4a80023c4a9008002200001002000a7
:1007300051ff070043e4a90023e4a8008002200041
:10074000010020004cff070043c4a80063c4a900b7
:10075000800220000100200047ff0700e1ff370072
:080760000040da000000fe0079
:020000040000fa
:0200000401f009
:04000c00f8ff0000f9
:020000040000fa
:0200000401f009
:040010007fff00006e
:020000040000fa
:0200000401f009
:040014007fff00006a
:020000040000fa
:0200000401f009
:04001800ffff0000e6
:020000040000fa
:0200000401f009
:04001c00deff000003
:020000040000fa
:10000800b0030000b0030000b0030000b00300001c
:10001800b0030000b0030000b0030000b00300000c
:10002800b0030000b0030000b0030000b6020000f7
:10003800b0030000b0030000b0030000b0030000ec
:10004800b0030000b0030000b0030000b0030000dc
:10005800b0030000b0030000b0030000b0030000cc
:10006800b0030000b0030000b0030000b0030000bc
:10007800b0030000b0030000b0030000b0030000ac
:10008800b0030000b0030000b0030000b00300009c
:10009800b0030000b0030000b0030000b00300008c
:1000a800b0030000b0030000b0030000b00300007c
:1000b800b0030000b0030000b0030000b00300006c
:1000c800b0030000b0030000b0030000b00300005c
:1000d800b0030000b0030000b0030000b00300004c
:1000e800b0030000b0030000b0030000b00300003c
:1000f800b0030000b0030000b0030000b00300002c
:10010800b0030000b0030000b0030000b00300001b
:10011800b0030000b0030000b0030000b00300000b
:10012800b0030000b0030000b0030000b0030000fb
:10013800b0030000b0030000b0030000b0030000eb
:10014800b0030000b0030000b0030000b0030000db
:10015800b0030000b0030000b0030000b0030000cb
:10016800b0030000b0030000b0030000b0030000bb
:10017800b0030000b0030000b0030000b0030000ab
:10018800b0030000b0030000b0030000b00300009b
:10019800b0030000b0030000b0030000b00300008b
:1001a800b0030000b0030000b0030000b00300007b
:1001b800b0030000b0030000b0030000b00300006b
:1001c800b0030000b0030000b0030000b00300005b
:1001d800b0030000b0030000b0030000b00300004b
:1001e800b0030000b0030000b0030000b00300003b
:0801f800b0030000b003000099
:020000040000fa
:10020800b0030000b0030000b0030000b00300001a
:10021800b0030000b0030000b0030000b00300000a
:10022800b0030000b0030000b0030000b6020000f5
:10023800b0030000b0030000b0030000b0030000ea
:10024800b0030000b0030000b0030000b0030000da
:10025800b0030000b0030000b0030000b0030000ca
:10026800b0030000b0030000b0030000b0030000ba
:10027800b0030000b0030000b0030000b0030000aa
:10028800b0030000b0030000b0030000b00300009a
:10029800b0030000b0030000b0030000b00300008a
:1002a800b0030000b0030000b0030000b00300007a
:1002b800b0030000b0030000b0030000b00300006a
:1002c800b0030000b0030000b0030000b00300005a
:1002d800b0030000b0030000b0030000b00300004a
:1002e800b0030000b0030000b0030000b00300003a
:1002f800b0030000b0030000b0030000b00300002a
:10030800b0030000b0030000b0030000b003000019
:10031800b0030000b0030000b0030000b003000009
:10032800b0030000b0030000b0030000b0030000f9
:10033800b0030000b0030000b0030000b0030000e9
:10034800b0030000b0030000b0030000b0030000d9
:10035800b0030000b0030000b0030000b0030000c9
:10036800b0030000b0030000b0030000b0030000b9
:10037800b0030000b0030000b0030000b0030000a9
:10038800b0030000b0030000b0030000b003000099
:10039800b0030000b0030000b0030000b003000089
:1003a800b0030000b0030000b0030000b003000079
:1003b800b0030000b0030000b0030000b003000069
:1003c800b0030000b0030000b0030000b003000059
:1003d800b0030000b0030000b0030000b003000049
:1003e800b0030000b0030000b0030000b003000039
:0803f800b0030000b003000097
:020000040000fa
:100768000200fa000002eb00040f780010003700c6
:100778001e027800342188001e0278007421880047
:100788001e027800342288001e0278007422880035
:100798001e027800342388001e0278007423880023
:1007a8001e0fe80040f729005100200030ff070025
:1007b800744c20009e027800848f5200ecff3400b5
:1007c8000080fa00000006000400fa0010079800f4
:1007d8000002eb00040f78000b0037001400200023
:1007e8002416880040f729005100200020ff070048
:1007f8000002eb002416880040f729005100200071
:100808001bff07001e0fe8001e0290009e027800e2
:10081800848f5200f1ff35000080fa0000000600c6
:100828000000fa0001e4a90001a4a9001420800036
:100838000400a1000410a1000420a10014208800d5
:100848002124a8002104a9002044a8002024a900ec
:100858002004a80023e4a80023c4a80014218000d1
:1008680004a0a10004b0a100142188000421800084
:100878000460a0000470a0000421880084de250024
:100888004421880084de2500842188000002eb00d2
:10089800342188000002eb00742188004124a8005c
:1008a8004104a9004044a8004024a9004004a8002d
:1008b80043e4a80043c4a8001422800004a0a100b7
:1008c80004b0a10014228800042280000460a10062
:1008d8000470a0000422880084de250044228800d9
:1008e80084de2500842288000002eb003422880080
:1008f8000002eb00742288006124a8006104a900aa
:100908006044a8006024a9006004a80063e4a8006b
:1009180063c4a8001423800004a0a10004b0a100af
:1009280014238800042380000460a1000470a00040
:100938000423880084de25004423880084de250003
:10094800842388000002eb00342388000002eb00b7
:100958007423880001e4a8000080fa000000060063
:100968000000fa00047820004421880004f02000e8
:10097800842188002124a800042180000460a100ab
:100988000470a0000421880023e4a80023c4a80060
:100998001421800004a0a10004b0a1001421880043
:1009a800043c200034218800047820007421880049
:1009b80001e4a8000080fa00000006000000fa0028
:1009c80001e3a90001a3a9000183a9000103a9006b
:1009d800041880000400a1000410a1000420a10054
:1009e8000418880001e3a8000080fa00000006004f
:1009f8000000fa000002eb00240888008460a900c7
:100a08002405800004c0a10004d0a10004e0a000d7
:100a1800240588009460a8000400280014088800b1
:100a28000421a8000900070005e1a9000080fa00d8
:100a3800000006000000fa000080fa00000006002e
:100a48000000fa000080fa0000000600217420006f
:100a580020c0b3006204200073052000824878009b
:0c0a6800834878008048780000000600f9
:020000040000fa
:100a74000008000002000000000000000000000068
:00000001FF
