:020000040000fa
:080000000002040000000000f2
:020000040000fa
:10040000cf9720000eff20000e01880000000000a2
:10041000000020000000e000020032000001200087
:10042000200288000c000700007f2100010020004e
:100430001f000700000020000000e0000200320062
:100440000000020000000000321302000000000063
:100450000040da000000fe004440a9000000200037
:100460000000e0000300320000002000a00188002e
:100470004440a80000000600f03fb1000180b10038
:1004800006003500ee03090000000000403fb10007
:100490000180b100fbff3d001000b000203fb00024
:1004a0000200350000800900000000000000060086
:1004b00091018800800078000000eb0015003700f3
:1004c000e280400032a0b4009101ba00e280400016
:1004d00032a0b4009102ba00e280400032a0b40021
:1004e0000002eb00472bde00f507b200602ce100b4
:1004f00004003a000059eb008301e900fdff3e00d3
:10050000040037006128e100010032000082eb00a6
:10051000040007001101ba000200e000e8ff3a0001
:10052000000006003159ba008301e9000c003200d6
:100530002159ba008301e900080032000400e000fc
:1005400003003a00e280400032a0b400f5ff37001b
:1005500011d9ba008301e900faff3a008100e800ee
:10056000e180400032a0b400000006003600f80030
:10057000809fbe00829fbe00849fbe00869fbe00fb
:100580003400f80000002000a00188000000fa00fc
:1005900005e1a900454b8000c44b8000848f5200c8
:1005a000040035000002eb00444b880010002000de
:1005b00088080700444b80000402e800444b880090
:1005c0000002eb00040888008460a90005e1a8008f
:1005d0000080fa003400f9004f03be004f02be0055
:1005e0004f01be004f00be003600f900004006007b
:1005f0003600f800809fbe00829fbe00849fbe0030
:10060000869fbe003400f80000002000a001880092
:100610000000fa0011e1a900544b80000402e80038
:10062000544b8800554b8000c4572100848f5200e2
:1006300004003a000002eb00544b88001000200038
:100640007a0807000002eb003408880084e0a90063
:1006500011e1a8000080fa003400f9004f03be0049
:100660004f02be004f01be004f00be003600f90031
:1006700000400600801f7800841f78003400f800d6
:1006800000002000a00188000000fa0011e1a9008c
:1006900024198000744b880034198000844b880032
:1006a00011e1a80091e0a9000080fa003400f900ef
:1006b0004f0278004f00780000400600801f78004d
:1006c000849fbe003400f80000002000a0018800d4
:1006d0000000fa0011e1a90004198000944b880081
:1006e00014198000a44b8800a54b8000141c200026
:1006f000848f520002003c0001e4a9000100370091
:1007000001e4a80011e1a80091c0a9000080fa004e
:100710003400f9004f02be004f0078000040060090
:100720000040da000000fe004f89de008201780000
:10073000090337000c00fa00889fbe008a9fbe00a4
:100740008c9fbe00140307000206be0084057800db
:100750000200be00020020001703070005003a0057
:100760008b02b300120020001303070001003a00bf
:10077000f8856d000c01be00c60007000800be0031
:100780009b0032000b08a3009e003a000df0a7006a
:100790000be0a00009f0a7000bf0a00009f0a100f9
:1007a0000801be00bb0007000bf0a6009500320058
:1007b00001003c000bd0a0008acf7500b2003300ce
:1007c0006000b8006250e10099003900a1003e00cd
:1007d0000b28a300a2003a000bf8a3000600320089
:1007e0000b58a300a70032000801be00a9000700b3
:1007f0000800be00940032000800be001503070088
:100800000004be00050578000bf0a7000b30a60021
:100810000bf0a1005b079800324f200053f3230038
:10082000cb02070005003d000800be0012002000ba
:10083000150307000004be000a05e9004a079800f6
:100840006150b900b8ff0700008fbe000c01be0068
:100850005c0107003a010700300798000100e00042
:1008600002003d0060001000e0801800f2ff270049
:10087000820f5000e08f580064003e000c00be0064
:100880002f01070020079800f2072000820f500078
:10089000e08f580005003c0012f82f00f3ff2f00f6
:1008a000820f5000838f580009003d000a00e000cd
:1008b0000300320001003c000201ea00020578005a
:1008c0006000b800200798003a0798001900370028
:1008d0003e0090006100b90093ff0700809fbe00ba
:1008e0000c00be004109dd004811de007208b100b5
:1008f000b10207000005be001e01be003101070065
:100900004f01be00b0000700809fbe000c00be007b
:100910000a01be00ac0007001e01be00290107004d
:100920004f01be00a90007008221270013f3230016
:10093000240107000005be002e0090006100b900f0
:1009400079ff070001f0a2000c01be009f00070024
:100950000006be000800be00ed0207000c01be004c
:10096000180107000a01be0098000700809fbe0022
:100970004a0007002e0590000af0a7000a05ea00c9
:10098000050037000800be000801be000d01070089
:100990000004be000c00be000801be000a00a70053
:1009a000080107000006be000a05d100f5ff3a0065
:1009b0005e01900002e0a600030037000001be00c7
:1009c000360007003e0007000004be004f00be00d6
:1009d000260307000801be00fa0007003e01900050
:1009e000a9020700de0590000bf0a70001f0a200ad
:1009f0004f06be004f05be004f04be000080fa0047
:100a00000000060025000700f9ff37002700070057
:100a10006000b8000bd0a7000bc0a0000be0a7003f
:100a20000bc0a2000bc0a70001f82700f0ff3700a1
:100a30000df8a300020032001e0007001900070095
:100a40000bf8a300eaff32000b30a70001f0a20070
:100a5000e7ff37000df8a300f9ff3a00f7ff370072
:100a60000801be000b000700e6ff320001003c0059
:100a70000df0a2006000b8000df0a700090007000b
:100a8000dbff37000b000700f1ff2700f0ff2f000e
:100a9000d7ff3700010007002d02370001f82300bf
:100aa0000000050001f827000000050020022000da
:100ab0000100370010022000d04b88000000060023
:100ac000889fbe008a9fbe008c1f780032020700fc
:100ad0004803330003866c006450e1002e003200ae
:100ae0006420e100330032006150e1002f00320049
:100af0006120e1003100320085855500eb07b00030
:100b00000900200008042000050037000804440004
:100b100089844c000a0031000603430087834b00a0
:100b20000001530081815b00f8ff33000203be0027
:100b30000800a0000804440089844c00f6ff390036
:100b4000c639dd008301730001003200130020006c
:100b50008904d1000884d3000998a300050032005d
:100b60000800a7000300a0008904d1000884d30076
:100b70008b05e8008904d1000884d3000001eb0054
:100b80000281d2002b03070001f0a1000cf0a700a6
:100b900001f0a000200337006420e10022033200ae
:100ba0000801be000200be00f7ff37006120e1002f
:100bb0001d0332006000b800f3ff37000000200082
:100bc00001f82700f0ff370003f0a200889fbe0065
:100bd0008a9fbe008c1f7800ef01070005033300d9
:100be0006450e1004f0032006420e1005200320006
:100bf00003826c0007003b000905d0000306d0000b
:100c0000820f54000c065d00020039000200320021
:100c100089017800030678008582550004003d00b4
:100c20000003fd008103fd008502ea008b85420080
:100c3000840f720002003b0060001000e08018008a
:100c40006011b8000005eb007a28e1000a003900c5
:100c500006007800c75ddd00f707b20087807500e9
:100c60002d003700828171000a0178006105600063
:100c70008180d1000080d3008502e900f9ff3b00ac
:100c8000060440008784480002003b006004140012
:100c9000e0841c000988a300070032008a817100eb
:100ca00082817100610164008904d1000884d3004d
:100cb0008b05e800170037000978a30013003a00fd
:100cc0000b00e000130034008b05e9000804440029
:100cd00089844c000a4474000978a3000d003a008e
:100ce0000b00e000070034008b05e9000804440015
:100cf00089844c0001003a000b0020000978a30011
:100d0000f7ff32000001eb00020037008281710022
:100d10000a017800c70207000cf0a70001f0a0004c
:100d2000bd0237006420e10002003a00838f6c00ae
:100d3000bd0233000801be000200be00b60237004b
:100d40000001be00e10207000470a70003f0a1004b
:100d50006509b100160032000d0035006828e10079
:100d600006003500f0ff2f00f1ff27000300e00030
:100d700013003b00010028000000050000004000b7
:100d8000818048008502e900fcff3a000800370036
:100d9000f88f420002003c008000eb0000000500dc
:100da0008100d1000080d3008502e800fcff3a00fa
:100db0000300e00002003b0060001000e08018002b
:100dc00000000600889fbe008a9fbe008c1f78002e
:100dd000710107008702330003866c006450e10054
:100de000240032006420e100270032006150e1005d
:100df000220032006120e100210032008b85420098
:100e0000eb07b1000134b800003ab8000804420012
:100e100089844a00013ab8000030b8008880400058
:100e200009014a00040033000000400081804800ae
:100e3000020149008b05e900c909dd00830170004a
:100e40000100320013002000c814de004814dd0049
:100e50004709de001200b200c808de0008847000f6
:100e60007402070001f0a1000cf0a70001f0a0003f
:100e7000690237006120e1006b0232000801be0008
:100e80000200be00f7ff37006150e100fcff3a00ae
:100e900065023700889fbe008a9fbe008c1f7800c5
:100ea0000006eb00e00f5000e08f5800e00f590003
:100eb000e08f590007003d006044b8006055b8005d
:100ec0000000540081805c0002015d0083815d00b0
:100ed0001c002000e00f5200e08f5a00e00f5b0082
:100ee000e08f5b0007003d006044b8006055b8002b
:100ef0000402540085825c0006035d0087835d0068
:100f00000c00a20086020700e00f56000600320027
:100f10006022b8006033b8000000520081805a009f
:100f200002015b0083815b004f0678004f05be0025
:100f30004f04be0000000600889fbe008a9fbe00ce
:100f40003004be002005be000404440085844c002b
:100f500006054d0087854d000898be000a90be002a
:100f60000440e10005c8e10006d0e10007d8e10037
:100f700002003100680040001008e8004f05be0084
:100f80004f04be00000006001000fa00889fbe005b
:100f90008a9fbe000605be000404be003002be00eb
:100fa0002003be00c4b79f00d5b79f00e6b79f00df
:100fb000f7b79f000802520089825a000a035b00bb
:100fc0008b835b0084bf9f0095bf9f00a6bf9f00df
:100fd000b7bf9f000498be000698be001100200015
:100fe0004fb29700dfb297006fb39700ffb397003f
:100ff000b2000700010039008000eb0010881000eb
:101000004f05be004f04be000080fa00000006003d
:101010001400fa00889fbe008a9fbe008c9fbe000d
:10102000790007000605be000404be000006eb00c0
:10103000ccb79f00bcb79f00acb79f009cb79f0088
:101040008cb79f000d0420004fb39700bfb29700ec
:10105000860343002fb29700e00f530004003d00c9
:101060009b0007000f004000b3ff0700030037009c
:10107000970007000f004000c3ff0700cfb29700a2
:1010800095bf9f00e08f5200090035006500070002
:1010900014002000050020006033b800000072003a
:1010a0008180720002017300838173005600070083
:1010b0000c06e8008d0f5600e3ff3a001fba9700b8
:1010c000e00f520005003d000802be000a03be000a
:1010d00000fe2f000f00400097ff07004faa970067
:1010e000e00f520008003a000fb497009fb4970039
:1010f0002fb59700bfb59700d8b79f00e9b79f00fd
:10110000fab79f008bbf9f00460007004f06be0046
:101110004f05be004f04be000080fa00000006002c
:10112000881f780018002000881f7800b8ff07008b
:101130008f87e9004f04780000000600801feb0055
:10114000b3ff07008f87e90000000600889fbe00fc
:101150008a9fbe004100070007003d0044000700d1
:10116000180020004900070008003d002f0007007c
:101170000004eb00050037000004eb00430007000b
:1011800002003d002900070018002000e4ff0700ce
:10119000e00f540001003200410007004f05be007f
:1011a0004f04be0000000600889fbe008a9fbe005c
:1011b0008c1f78002900070005003d002c00070067
:1011c0001c0020003d00070007003d00050037001f
:1011d0000006eb002d00070003003d006044b8004e
:1011e0006055b80013000700d4ff0700e00f560059
:1011f000010032002a0007004f0678004f05be00ac
:101200004f04be00000006000100070000000600b9
:1012100090b79f00a1b79f00b2b79f00c3b79f00d0
:101220000000060008000700000006006044b80047
:101230006055b8000402540085825c0006035d001e
:1012400087835d00000006001fb09700afb09700d5
:101250003fb19700cfb1970000000600e00f5000ab
:10126000e08f5800e00f5900e08f590000000600a1
:101270006044b8006055b8000000540081805c00f4
:1012800002015d0083815d0000000600e00f520056
:10129000e08f5a00e00f5b00e08f5b00000006006b
:1012a0006022b8006033b8000000520081805a000c
:1012b00002015b0083815b00000006000820e10062
:1012c00009a8e1000ab0e1000bb8e1000000060047
:1012d0004f2bde0086837300a7b79f004f23de00ed
:1012e000858242008682720095b79f00ffaa970010
:1012f0004f2bde00040242000602720084b79f00fa
:101300006faa97004f23de0085824200868272001a
:10131000f5af9f00ccff07004f18de00040242002b
:1013200000027200e4af9f00c7ff0700000040000a
:10133000818048000201490083814900b4ff070011
:101340000802be000a03be0000fe2f0000000600d7
:101350001400200094013700881f780003047800ef
:101360000300e00007003d0060001000e08018006e
:1013700060011900e081190002003b0001f02d001e
:1013800003003700a301070008f0a70001f0a00048
:101390004f047800000006000004be004b01070067
:1013a0000003be000405be000200be0047010700a6
:1013b000844f750000000600889fbe008a9fbe0013
:1013c0000003be00410107008505780082815200bc
:1013d000020020006220e10004003a00f307b1009f
:1013e000040035007718e100040035000600be0057
:1013f000140037006000b8000f003700f50f200020
:10140000faff2f008502d1000a85d3008301e9008d
:10141000fcff3b008184620000046500890f7400ba
:10142000f2ff32008582ea000a85ea0081846200c8
:1014300000046500ff00070007f0a70001f0a0000e
:101440000081eb000200e0004f05be004f04be002b
:10145000000006000003be001c0107006220e1003e
:10146000020032000600be0005000500e507b100dd
:10147000f107b20004f023008480700007f0a70099
:1014800001f0a000240005000003be000f010700ca
:101490006220e100020032000600be0000000600eb
:1014a00085024100e30f20000328e10005003c0015
:1014b000a3fe2f000328e10007003d0005002000e7
:1014c00001003700f50f200020022000d04b8800db
:1014d0006000b8000800370013002000838152002c
:1014e00005003d008100d1000080d3008301e800a9
:1014f000fcff3a0005002000c72add00f107b2001a
:101500008580700007f0a70001f0a0000000060031
:10151000889fbe008a9fbe008c9fbe00cdff070043
:10152000850478000005be006420e10049003e000b
:101530006220e10003003200090035000bf8a3002f
:10154000440032000bf8a300080032001002200013
:10155000d04b8800f0ff2f00f1ff27003d0037003f
:1015600001f82f00000020003a0037003d0007007e
:1015700095fd07000006be000a00be00324f2000a5
:1015800053f3230052010700060034000c00be0094
:10159000340007008cfd07000006be000a00be00f4
:1015a000020037008904e9000c00be002d0007008e
:1015b00004fe07002b00070084fd07000001be00a9
:1015c0000c00be003efd07000005be000001be008d
:1015d000fcfd07000006be00a2f32300430d2c0013
:1015e0007afd0700809fbe000c00be00d2e32700fa
:1015f000d3f02b00f3fd07004f01be0030fd0700c4
:101600000006be000a01be00eefd07000a01be0092
:101610006efd07000006be006148b90042fc0700ed
:101620000005be0032082800e3952b00e5fd070009
:101630000c01be0065fd07000006be000a00be00ea
:101640000200280013f32300defd07000c01be009a
:101650005efd07004f06be004f05be004f04be00f2
:101660000000060003f0230002000500889fbe0072
:101670008a9fbe008c9fbe000004be00930007003e
:101680000800be006420e10048003e005500320022
:1016900072212700132b24000d01070047003c0096
:1016a0000800be00c2ec2800e32c2c0028ff070035
:1016b000470035000800be0001f0a1000200200034
:1016c0000338230022ff0700430035000800be0056
:1016d000b2a32a0083fb2300bafd0700020020000a
:1016e00003f0230001f0a70003f0a00037fd07007e
:1016f00093fd07000005be000bfc070001f0a200ef
:101700000006be000200280013f32300adfd070011
:101710000801be002dfd0700809fbe000c00be002a
:1017200032082800e3952b00a6fd07004f01be00fc
:1017300026fd07000006be000001be00a1fd070057
:10174000809fbe004241250083b823009dfd070015
:101750000200200003e823001cfd07000c01be006e
:1017600098fd07000006be004f00be00f2f92b00f6
:10177000c3d4230093fd07000200200003f02300e0
:1017800012fd07000c01be000ffd07000001be00a6
:101790000c00be00cafc07000200200003f023007a
:1017a0000afd07006101450037ff07004f06be0034
:1017b0004f05be004f04be000000060001f82700e0
:1017c0000000200022022000d24b8800f7ff3700e3
:1017d0006000b800fbff370001f823000000200084
:1017e000f2ff370009f8a300f0ff32006000b800f4
:1017f000eeff37000200be006450e1000500360035
:101800006420e100020036000968a30001003a00ec
:101810000800be000160a0004f0678004f05be0022
:101820004f04be0000000600f0ff2f00f1ff27006c
:10183000f9ff370081002000618055000b003d005a
:101840000b00200061fe2f000100e1001d003400ac
:1018500082817100610164008904d1000884d30091
:101860000000e800faff3a00710020006100640007
:1018700003007000020060000900320061044400af
:10188000e0844c000988a500050032008b05e800c3
:101890006808e10002003a008904d1000884d300fe
:1018a000f20f20000258e10005003d00c75ddd0099
:1018b000f907b20089807500080078000000060072
:1018c0000bf827008b00780000000500c70ade0037
:1018d000f107b200f50fb20008003200e1cf42007c
:1018e000020032000170a00024000500810f70008a
:1018f000010032000408050044000500810f70005b
:1019000002003a00140005008502e90000004000d2
:1019100081c04800fcff3b000170a00024000500ce
:10192000889fbe008a9fbe008c9fbe000404b80042
:101930000506b8008904460060854e000606b8001a
:101940000a054600e0854e000706b8008b054600f4
:10195000040eb800890446000a854e00e0854d005b
:10196000050eb8000a0546008b854e00060eb8002d
:101970008b0546000416b8000a0546008b854e000c
:101980000516b8008b054600041eb8008b054600fe
:101990000800be000a01be004f06be004f05be0093
:1019a0004f04be0000000600889fbe008a9fbe0054
:1019b000841f780078fe07004f0078001100330084
:1019c000f0ff2f00838f6c0006003b0004056500cc
:1019d0000a00a7000800370009f0a6001000200048
:1019e00008003700820f5400838f5c000300390029
:1019f0001000200001003e000000200009f0a700b8
:101a00000000ea004f05be004f04be000000e000e9
:101a100000000600889fbe008a9fbe000082700002
:101a20000402710004827100260032000004be002e
:101a30000200be006011b8006b0920009502200072
:101a40000182cf000a0039000541b1000082cf00b9
:101a5000070039000541b1000982cf0004003900b8
:101a60000541b1000882cf00010039000541b100f5
:101a700005425200120032000a003b0082817100d0
:101a8000610164008100d1000080d3008984d3000b
:101a90000884d3008b05e8000442e800f7ff3a0011
:101aa000070037000804440089844c000000480007
:101ab000818048008b05e9000442e900f9ff3a0003
:101ac0005cff07004f05be004f04be00000006008b
:081ad000f4ff2f00b4ff370002
:020000040000fa
:0200000401f009
:04000c00f8ff0000f9
:020000040000fa
:0200000401f009
:040010007fff00006e
:020000040000fa
:0200000401f009
:040014007fff00006a
:020000040000fa
:0200000401f009
:04001800ffff0000e6
:020000040000fa
:0200000401f009
:04001c00dfff000002
:020000040000fa
:10000800900300009003000090030000900300009c
:10001800900300009003000090030000900300008c
:10002800900300009003000090030000b602000057
:10003800900300009003000090030000f802000005
:10004800900300009003000090030000900300005c
:10005800900300009003000090030000900300004c
:10006800900300009003000090030000900300003c
:10007800900300009003000090030000900300002c
:10008800900300009003000090030000900300001c
:10009800900300009003000090030000900300000c
:1000a80090030000900300009003000090030000fc
:1000b80090030000900300009003000090030000ec
:1000c80090030000900300009003000090030000dc
:1000d80090030000900300009003000090030000cc
:1000e80090030000900300009003000090030000bc
:1000f80090030000900300009003000090030000ac
:10010800900300009003000090030000900300009b
:10011800900300009003000090030000900300008b
:10012800900300009003000090030000900300007b
:10013800900300009003000090030000900300006b
:10014800900300009003000090030000900300005b
:10015800900300009003000090030000900300004b
:10016800900300009003000090030000900300003b
:10017800900300009003000090030000900300002b
:10018800900300009003000090030000900300001b
:10019800900300009003000090030000900300000b
:1001a80090030000900300009003000090030000fb
:1001b80090030000900300009003000090030000eb
:1001c80090030000900300009003000090030000db
:1001d8009003000090030000900300003a03000021
:1001e8005e030000900300009003000090030000ed
:0801f8009003000090030000d9
:020000040000fa
:10020800900300009003000090030000900300009a
:10021800900300009003000090030000900300008a
:10022800900300009003000090030000b602000055
:10023800900300009003000090030000f802000003
:10024800900300009003000090030000900300005a
:10025800900300009003000090030000900300004a
:10026800900300009003000090030000900300003a
:10027800900300009003000090030000900300002a
:10028800900300009003000090030000900300001a
:10029800900300009003000090030000900300000a
:1002a80090030000900300009003000090030000fa
:1002b80090030000900300009003000090030000ea
:1002c80090030000900300009003000090030000da
:1002d80090030000900300009003000090030000ca
:1002e80090030000900300009003000090030000ba
:1002f80090030000900300009003000090030000aa
:100308009003000090030000900300009003000099
:100318009003000090030000900300009003000089
:100328009003000090030000900300009003000079
:100338009003000090030000900300009003000069
:100348009003000090030000900300009003000059
:100358009003000090030000900300009003000049
:100368009003000090030000900300009003000039
:100378009003000090030000900300009003000029
:100388009003000090030000900300009003000019
:100398009003000090030000900300009003000009
:1003a80090030000900300009003000090030000f9
:1003b80090030000900300009003000090030000e9
:1003c80090030000900300009003000090030000d9
:1003d8009003000090030000900300003a0300001f
:1003e8005e030000900300009003000090030000eb
:0803f8009003000090030000d7
:020000040000fa
:101ad8000200fa00000f78001e0278004412880005
:101ae800000000000412800061026200e00f520052
:101af800fcff320044128000040078000080fa00e5
:101b0800000006000000fa00153a800064f42f0077
:101b180004826200143a8800153a800074f52f0098
:101b280004826200143a8800153a8000f4fb2f0002
:101b380004826200143a88004535800004fc2f00b6
:101b4800048262000420a0004435880085368000a5
:101b5800f40f2c00848262000470200005027200d9
:101b680084368800a5368000f40f2c008482620039
:101b78000480200005027200a43688009536800093
:101b8800f40f2c0084826200049020000502720089
:101b980094368800153a800064f42f0004826200ad
:101ba800143a8800153a800074f52f000482620008
:101bb800143a8800153a80000404200005027200d7
:101bc800143a88000002eb00441288008540a900fe
:101bd8009540a9004382a9004362a9004342a90095
:101be8004322a9004302a90042c2a90042a2a800b8
:101bf80040c2a90041e2a8000080fa0000000600e7
:101c08000c00fa00889fbe008a9fbe00300798002b
:101c18004107980052079800a4002000040f78009c
:101c280004a02c00140798000e003700be02900094
:101c38001e029000110009008402d80000027800fa
:101c4800e00f52000b003c001e0fe9009e029000be
:101c5800a4002000110009008402d80000027800c6
:101c6800140798001e029000e10f5200efff3c009d
:101c780001003700000000000002eb001407980084
:101c88004c0037003e029000cfa2de000400be00e8
:101c9800a3fa07000004be001e0290001e021200f4
:101ca8000402e900cfa2de000400be009cfa07008f
:101cb8000002be000401be00000020000112240042
:101cc8009afa07000002be000401be000800be0028
:101cd80079fb07000002be00020020000324240054
:101ce8000400be00b7fb07000002be000400be00ef
:101cf80011fc07000002be00044278004447980027
:101d080064024700de0190004e019000110020009f
:101d1800040078002e0007003e029000cfa2de00eb
:101d28000400be007efa07000004be004e42900088
:101d38000402fb000403b100cfa2de000400be00d1
:101d480077fa07000005be001e0290001e0212006e
:101d58000402e900cfa2de000400be0070fa07000a
:101d68000002be000401be00000020000112240091
:101d78006efa07000002be000401be000a00be00a1
:101d88000efc07000002be000401be000800be00f1
:101d98008bfb07000002be000400be00e6fb070044
:101da8000002be00340798001e0290000402e800fa
:101db800140798001e0290009e0f5200b1ff3500d4
:101dc8004f05be004f04be000080fa000000060068
:101dd8000c00fa0020079800310798004207980085
:101de80053079800080107008000eb005e00900090
:101df800df000700ce02900074032000848f520099
:101e080004003a001100200020022000d001070041
:101e18000f003700ce02900084032000848f520008
:101e280004003a005100200020022000c8010700e9
:101e380007003700ce02900094032000848f5200e0
:101e480003003a00a100200020022000c001070082
:101e58000002eb00040f7800090037001e0278002a
:101e6800ae02900004824200144278000402fb0093
:101e78008400780020002000b50107001e0fe8004c
:101e88003e0290009e027800848f5200f3ff3500d6
:101e9800000420009a010700000278001407980047
:101ea8009e029000f40720000482620084007800fb
:101eb80000042000a60107000080fa0000000600c8
:101ec8000800fa00000f7800110798002207980010
:101ed800330798001e0278008400780090092000db
:101ee8009b0107001e02780048a2de0084007800eb
:101ef800a0092000960107001e02900084007800c7
:101f0800b0092000920107001e02900048a2de00de
:101f180084007800c00920008d0107002e0290007f
:101f280084007800d0092000890107003e02900053
:101f38004b22de0084007800300620008401070070
:101f4800be029000047e2000048262004522de006a
:101f580084007800400620007d0107003e029000c2
:101f68007f02620084007800500620007801070094
:101f780001042000000920007501070090012000dd
:101f88009c0107000080fa00000006001000fa001b
:101f980020079800310798004207980053079800d7
:101fa8006407980075079800970007008000eb0009
:101fb8007e0090006e000700de0090004e0090004a
:101fc80056000700ee02900074032000848f520030
:101fd80004003a0011002000200220005c010700e4
:101fe8000f003700ee02900084032000848f520017
:101ff80004003a005100200020022000540107008c
:1020080007003700ee02900094032000848f5200ee
:1020180003003a00a1002000200220004c01070024
:102028000002eb00040f78000b0037001e02780056
:10203800ae02900004824200144278000402fb00c1
:102048008400780020002000410107009001200052
:10205800680107001e0fe8003e0290009e0278000b
:10206800848f5200f1ff350000042000240107008e
:1020780000027800140798009e029000f4072000e0
:102088000482620084007800000420003001070008
:102098000080fa00000006000200fa00210b200070
:1020a800000720002a010700410020001007200037
:1020b80027010700000f2000110107000002780027
:1020c800040f78001e0278000420a0008400780025
:1020d800000f20001e0107000080fa000000060023
:1020e8000200fa008000eb0000072000180107003a
:1020f800000f20000201070000027800040f78009a
:10210800b40f20001e02620084007800000f200037
:102118000f0107000080fa00000006000400fa0022
:10212800000f7800110798009e007800a002200098
:10213800070107001e0278004822de0084007800ac
:10214800b0022000020107009e009000c00220009b
:10215800ff0007001e0290004822de00840078007d
:10216800d0022000fa0007000080fa0000000600f4
:102178000400fa00000f7800110798001e0278008a
:102188004b22de008400780030062000f0000700b3
:10219800047e20001e0262004522de0084007800d2
:1021a80040062000ea0007009e0278007f82620055
:1021b8008400780050062000e50007001e02900009
:1021c8004b22de008400780000062000e0000700b3
:1021d8009e029000047e2000048262004522de00f8
:1021e8008400780010062000d90007001e02900025
:1021f8007f0262008400780020062000d4000700d7
:102208000080fa00000006000200fa000004200026
:10221800bb00070000027800040f780004082000c3
:102228001e0272008400780000042000c800070025
:102238008000eb0010022000c50007000080fa00b3
:10224800000006000200fa00000f780015002000c8
:102258001e027800f31d2000f2312000110020003a
:10226800100020000400070090012000e100070092
:102278000080fa00000006000c00fa00000f780049
:102288001107980022079800330798004407980020
:10229800550798001e027800840078001009200075
:1022a800ab0007001e02780048a2de008400780018
:1022b80020092000a60007001e0290008400780074
:1022c80030092000a20007001e02900048a2de008c
:1022d80084007800400920009d0007002e0290002d
:1022e8008400780050092000990007002e02900011
:1022f80048a2de00840078006009200094000700ee
:102308003e029000840078007009200090000700c9
:102318003e02900048a2de00840078008009200078
:102328008b0007004e0290004b22de0084007800ec
:102338003006200086000700ce029000047e2000b0
:10234800048262004522de008400780040062000f6
:102358007f0007004e0290007f0262008400780030
:10236800500620007a0007005e029000e10f52003c
:1023780004003a00010b2000000920007400070047
:102388000300370001092000000920007000070041
:1023980090012000970007000080fa000000060066
:1023a8000200fa0000c2eb00044f78001108200078
:1023b8004000200066000700100020008d00070084
:1023c8008100200000012000610007004106200074
:1023d800400120005e00070011002000700120006d
:1023e8005b000700b10020008001200058000700b2
:1023f800e10d200090012000550007001100200089
:10240800a001200052000700f1012000b0012000c7
:102418004f0007008000eb00c00120004c000700bf
:10242800f1012000d0012000490007008000eb00e6
:10243800e00120004600070011002000f001200004
:10244800430007008000eb00000320004000070065
:102458008000eb00100320003d000700f101200080
:10246800400320003a0007003100200050032000fc
:10247800370007008000eb0020032000340007002d
:102488008000eb003003200031000700f10d200030
:10249800600320002e0007001100200070032000b8
:1024a8002b00070001082000e00820002800070092
:1024b800100020004f000700100020004d0007000a
:1024c8000108200010002000210007001100200052
:1024d800700c20001e000700a1082000a0082000a2
:1024e8001b0007009e4278000582fb0084007800ec
:1024f800b0082000160007000080fa00000006005f
:102508000400fa0010079800ca62a9000008200019
:102518006ffd07001e0090006dfd0700ca62a8004d
:10252800ca62a9000004200069fd07000000eb0052
:1025380067fd070000027800040f7800ca62a8004f
:102548001e027800040078000080fa0000000600ef
:102558000400fa00000f780011079800ca62a90069
:10256800000820005afd07001e00780058fd0700eb
:10257800ca62a800ca62a9000000eb0054fd070067
:102588001e00900052fd0700ca62a8000080fa00f1
:10259800000006000200fa00004f7800ca62a90095
:1025a800000820004afd07009e4278000582fb00d3
:1025b8000400780046fd0700ca62a8000080fa00ff
:1025c800000006000200fa00004f7800ca62a90065
:1025d8000000eb003efd07009e4278000582fb00ec
:1025e800040078003afd0700ca62a8000080fa00db
:1025f800000006000200fa00000f78001e027800b2
:1026080004007800cf80de000101780082017800a4
:1026180084a82300850320006033b8001bfa070054
:102628000203be000002be000400be000601be0098
:10263800843e2000050020006033b800b6fa070089
:102648000203be000002be000402be000400be0079
:1026580087f707000080fa00000006000000fa0073
:1026680040a7a900041120000416880004012000d6
:102678004416880020002000540007002000200095
:102688006800070094022000343a8800243a800049
:102698000460a1000470a100243a8800253a800053
:1026a80004fe2f0004826200243a880016002000ed
:1026b80084072000a509200037742000844b780087
:1026c800854b7800864b78001600200064042000b3
:1026d8007505200027742000844b7800854b78000e
:1026e800864b780000000000153a8000040027009f
:1026f8008482620004002100848f5200faff3a00ad
:1027080000000000153a80000402200004826200e4
:10271800e00f5200fbff320050c7a80051a7a800e5
:10272800843a80000480a0000490a00004a0a000c7
:10273800843a880051e7a80000000000853a80002c
:102748000400240004826200e00f5200fbff320004
:10275800fb00070049000700803e2000ed0107004c
:10276800ffff37000200fa000002eb00040f7800b8
:10277800100037001e027800342188001e027800fd
:10278800742188001e027800342288001e02780016
:10279800742288001e027800342388001e02780004
:1027a800742388001e0fe80020ff28000100200085
:1027b8002ff7070074de25009e027800848f5200f0
:1027c800ecff34000080fa00000006000400fa0064
:1027d800100798000002eb00040f78000b00370088
:1027e800140020002416880040f72900510020001a
:1027f8001ff707000002eb002416880040f72900a5
:10280800510020001af707001e0fe8001e02900072
:102818009e027800848f5200f1ff35000080fa0094
:10282800000006000400fa00100798000002eb0000
:10283800040f78000b003700040028006416880095
:1028480040f729005100200009f707000002eb00bb
:102858006416880040f729005100200004f707009b
:102868001e0fe8001e0290009e027800848f52001e
:10287800f1ff35000080fa00000006000000fa00b1
:1028880001e4a90001a4a900142080000400a1000b
:102898000410a1000420a100142088002124a8000d
:1028a8002104a9002044a9002024a9002004a8008c
:1028b80023e4a80023c4a8001421800004a0a100d8
:1028c80004b0a10014218800042180000460a10044
:1028d8000470a10004218800843e2000542188004f
:1028e800843e20006421880084de2500442188007d
:1028f80084de25008421880084de250034218800b8
:102908004124a8004104a9004044a9004024a9008a
:102918004004a80043e4a80043c4a800142280008f
:1029280004a0a10004b0a1001422880004228000a1
:102938000460a1000470a10004228800843e2000e5
:1029480054228800843e20006422880084de25000a
:102958004422880084de25008422880084de250045
:10296800342288006124a8006104a9006044a900f9
:102978006024a9006004a80063e4a80063c4a80058
:102988001423800004a0a10004b0a100142388002f
:10299800042380000460a1000470a10004238800bf
:1029a800843e200054238800843e2000642388004d
:1029b80084de25004423880084de250084238800e3
:1029c80084de25003423880001e4a8000080fa0092
:1029d800000006000000fa0001e3a9000103a900b5
:1029e80000e3a90000c3a90000a3a9000083a80070
:1029f8000183a900041880000400a0000410a100ad
:102a08000420a000041888005518800004f0210054
:102a1800050272005418880064188000f401b3009d
:102a2800641888000263a9000283a90002a3a90010
:102a3800e40680000400a1000410a1000420a00006
:102a4800e40688009200a900a200a800d40680002d
:102a580004c0a10004d0a10004e0a000d4068800ae
:102a680091e0a900a1e0a80001e3a8000080fa0015
:102a7800000006000000fa000002eb0024088800ad
:102a88000002eb00040888000400280014088800ed
:102a98000421a9002405800004c0a10004d0a000de
:102aa80004e0a000240588008460a9009460a800c0
:102ab80005e1a8000080fa00000006000000fa0006
:102ac8000002eb00840888000002eb00340888004c
:102ad80004002800640888001021a900340580003b
:102ae80004c0a10004d0a00004e0a00034058800c0
:102af80084e0a90094e0a80011e1a8000080fa0091
:102b0800000006000000fa007547a9007d07a9002b
:102b180049a5a900442a80000460a0000470a1000f
:102b2800442a880048a5a8004825a9004805a80007
:102b38004905a90049e5a8000080fa000000060040
:102b48000000fa00140280000450a1000460a100f3
:102b58000470a100140288000080fa00000006003a
:102b68000000fa00140280000450a0000460a000d5
:102b78000470a000140288000080fa00000006001b
:102b88000000fa0081e0a9003405800004c0a1001b
:102b980004d0a00004e0a0003405880024058000cb
:102ba80004c0a10004d0a00004e0a000240588000f
:102bb800640580000480a1000490a00004a0a00087
:102bc800640588008460a90084e0a9008640a90003
:102bd8009460a80094e0a800b40480000be3a80067
:102be8000080fa00000006000600fa00881f78003e
:102bf800100798002107980018c0b3006011b800aa
:102c08001e009000ae009000cff907000002780087
:102c1800e00f5200010035000044eb00e04f540083
:102c28000b0032000200200003f023001e00900079
:102c3800ae009000e2f707000002be000400be00ec
:102c48003df807000002be00040f78000a003700b4
:102c58000200200003f023001e009000ae00900048
:102c6800d8f707000002be000400be0032f80700d3
:102c78000002be00040f78001e02780004007800ed
:102c88004f0478000080fa00000006000400fa00f3
:102c9800100798000002eb00040f78009e029000d5
:102ca800743e2000848f520002003c00843e2000c5
:102cb800140798009e02900064002000110009008b
:102cc8008402d80000027800040f780043c4a800ea
:102cd80063e4a8001e02780004007800cf80de00bc
:102ce800010178008201780084a823008503200070
:102cf8006033b80065f807000203be000002be009a
:102d08000400be000601be0004242400f5002000d3
:102d18006033b80000f907000203be000002be00dd
:102d28000402be000400be00d1f5070043c4a90098
:102d380023c4a8001e02780004007800cf80de00bb
:102d4800010178008201780084a82300850320000f
:102d58006033b8004df807000203be000002be0051
:102d68000400be000601be0004242400f500200073
:102d78006033b800e8f807000203be000002be0096
:102d88000402be000400be00b9f5070063e4a90010
:102d980043e4a8001e02780004007800cf80de001b
:102da800010178008201780084a8230085032000af
:102db8006033b80035f807000203be000002be0009
:102dc8000400be000601be0004242400f500200013
:102dd8006033b800d0f807000203be000002be004e
:102de8000402be000400be00a1f5070063c4a800e9
:102df80023c4a9001e02780004007800cf80de00fa
:102e0800010178008201780084a82300850320004e
:102e18006033b8001df807000203be000002be00c0
:102e28000400be000601be0004242400f5002000b2
:102e38006033b800b8f807000203be000002be0005
:102e48000402be000400be0089f5070043e4a9009f
:102e580023e4a8001e02780004007800cf80de007a
:102e6800010178008201780084a8230085032000ee
:102e78006033b80005f807000203be000002be0078
:102e88000400be000601be0004242400f500200052
:102e98006033b800a0f807000203be000002be00bd
:102ea8000402be000400be0071f5070043c4a80078
:102eb80063c4a9001e02780004007800cf80de00f9
:102ec800010178008201780084a82300850320008e
:102ed8006033b800edf707000203be000002be0031
:102ee8000400be000601be0004242400f5002000f2
:102ef8006033b80088f807000203be000002be0075
:102f08000402be000400be0059f507000080fa0064
:102f1800000006000400fa00100798000002eb0009
:102f2800040f78000002eb00040f7800200037003f
:102f38001e027800840242000480200004824200bd
:102f48001402780034218800c00320009e0240004b
:102f5800440b2000110009008402d8000102780007
:102f68008402420004802000048242001402780097
:102f780034228800840720009e024200440b20006f
:102f8800110009008402d80001027800840242007e
:102f98000480200004824200140278003423880050
:102fa800901020000100200031f507001e0fe800f6
:102fb800340b20009e027800848f5200dcff34001e
:102fc800d8ff37000000fa0044ef220034218800bf
:082fd8000080fa000000060071
:020000040000fa
:102fe000000800006801000002000000f42e9700b5
:102ff000303a3200dc337d00351b3700b7385000e3
:103000003ae53b00763d03003f8b40000d428900ce
:1030100043ff44006e46d600473549008d4adc0028
:103020004b224d005f4e92004fba5000d951ec0038
:1030300052f45300f054e10055c656009e57690003
:1030400058285900d9597d005a135b009c5b160023
:103050005c835c00e15c31005d735d00a65dcb00cc
:103060005de15d00e85de1005dcb5d00a65d7300a4
:103070005d315d00e15c83005c165c009c5b1300cd
:103080005b7d5a00d9592800596958009e57c600df
:1030900056e15500f054f40053ec5200d951ba00f7
:1030a00050924f005f4e22004ddc4b008d4a3500a0
:1030b00049d647006e46ff00448943000d428b000d
:1030c00040033f00763de5003b503a00b7381b0017
:1030d000377d3500dc333a0032973000f42e510052
:1030e0002dae2b000c2a6b0028cd26003125980030
:1030f000230322007220e5001e5d1d00db1b5f0024
:103100001ae918007a17120016b314005b130c00aa
:1031100012c61000890f56000e2e0d000f0cfc0079
:103120000af40900f8080700082207004a067f0091
:1031300005c004000f046b0003d502004c02d2004e
:10314000016501000701b7000075000042001d0085
:103150000008000008000800001d00004200750083
:1031600000b700000701650001d201004c02d50044
:10317000026b03000f04c000047f05004a06220012
:1031800007070800f808f40009fc0a000f0c2e00dd
:103190000d560e00890fc600100c12005b13b30011
:1031a000141216007a17e900185f1a00db1b5d0085
:1031b0001de51e0072200300229823003125cd005a
:1031c000266b28000c2aae002b512d00760900003a
:1031d0000200000000000000680900000e0000006e
:1031e000000000007809000002000000020000005a
:1031f000e80300007a09000002000000000000005f
:0432000000000000ca
:020000040000fa
:103204002174200020c0b300620420007305200054
:1032140082487800834878008048780000000600df
:00000001FF
