:020000040000fa
:080000000002040000000000f2
:020000040000fa
:100400000f8020000eff20000e0188000000000079
:10041000000020000000e000020032000001200087
:10042000200288000c000700403c20000100200052
:1004300011000700000020000000e0000200320070
:1004400000000200000000009e0202000000000008
:100450000040da000000fe004440a9000000200037
:100460000000e0000300320000002000a00188002e
:100470004440a80000000600910188008000780038
:100480000000eb0015003700e280400032a0b4000d
:100490009101ba00e280400032a0b4009102ba009b
:1004a000e280400032a0b4000002eb00472bde00e7
:1004b000f507b200602ce10004003a000059eb009f
:1004c0008301e900fdff3e00040037006128e100e0
:1004d000010032000082eb00040007001101ba00a5
:1004e0000200e000e8ff3a00000006003159ba00bf
:1004f0008301e9000c0032002159ba008301e900b0
:10050000080032000400e00003003a00e2804000ee
:1005100032a0b400f5ff370011d9ba008301e90019
:10052000faff3a008100e800e180400032a0b40008
:0c053000000006000040da000000fe00a1
:020000040000fa
:0200000401f009
:04000c00f8ff0000f9
:020000040000fa
:0200000401f009
:040010007fff00006e
:020000040000fa
:0200000401f009
:040014007fff00006a
:020000040000fa
:0200000401f009
:04001800ffff0000e6
:020000040000fa
:0200000401f009
:04001c00deff000003
:020000040000fa
:100008009a0200009a0200009a0200009a02000078
:100018009a0200009a0200009a0200009a02000068
:100028009a0200009a0200009a0200009a02000058
:100038009a0200009a0200009a0200009a02000048
:020000040000fa
:020000040000fa
:10053c000000fa00453a800004fc2f00048262009f
:10054c000420a000443a8800353a800004e02f00d3
:10055c0084826200440d200005027200343a880047
:10056c00253a800004fe2f00048262000430a000b3
:10057c00243a8800243a80000460a1000470a10091
:10058c00243a88001600200084072000a5092000ca
:10059c0037742000844b7800854b7800864b7800ac
:1005ac00160020006404200075052000277420002c
:1005bc00844b7800854b7800864b78000000000057
:1005cc00153a800004002700848262000400210098
:1005dc00848f5200faff3a0000000000153a8000a8
:1005ec000402200004826200e00f5200fbff320084
:1005fc0050c7a80051a7a800843a80000480a0002e
:10060c000490a00004a0a000843a880051e7a80040
:10061c0000000000853a800004002400048262007f
:10062c00e00f5200fbff320001a4a9000144a80016
:10063c00142080000400a1000410a1000420a100db
:10064c0014208800a46221002420880021e4a90041
:10065c0041e4a90021a4a90041a4a9002184a90076
:10066c004184a9002164a9004164a9002144a90086
:10067c004144a9002124a9004124a9002104a90076
:10068c004104a900042180000460a1000470a100b1
:10069c0004218800042280000460a1000470a100e1
:1006ac00042288002044a9004044a9002024a90069
:1006bc004024a9002004a8004004a80054b1200044
:1006cc003421880054b120003422880054b1200019
:1006dc00442288000002eb00542188000002eb0049
:1006ec00542288000002eb00642188000002eb0019
:1006fc0064228800a421800004c0a00004d0a100c2
:10070c0004e0a10004f0a100a4218800a521800030
:10071c0004fc2f0004826200a421880034e4a900a8
:10072c0023e4a80043e4a80023c4a80043c4a80001
:10073c0023a4a90043a4a9001421800004a0a100b3
:10074c0004b0a100142188001422800004a0a10090
:10075c0004b0a1001422880094218000670262007a
:10076c0094218800c062a900c082a900c9c2a90056
:0c077c00c9a2a90001e4a800ffff37009b
:020000040000fa
:04078800000000006d
:00000001FF
